{
  "_format": "hh-sol-artifact-1",
  "contractName": "Marketplace",
  "sourceName": "contracts/Marketplace.sol",
  "abi": [
    {
      "inputs": [],
      "stateMutability": "nonpayable",
      "type": "constructor"
    },
    {
      "anonymous": false,
      "inputs": [
        {
          "indexed": true,
          "internalType": "uint256",
          "name": "itemId",
          "type": "uint256"
        },
        {
          "indexed": true,
          "internalType": "address",
          "name": "nftContractAddress",
          "type": "address"
        },
        {
          "indexed": true,
          "internalType": "uint256",
          "name": "tokenId",
          "type": "uint256"
        },
        {
          "indexed": false,
          "internalType": "address",
          "name": "seller",
          "type": "address"
        },
        {
          "indexed": false,
          "internalType": "address",
          "name": "owner",
          "type": "address"
        },
        {
          "indexed": false,
          "internalType": "uint256",
          "name": "price",
          "type": "uint256"
        }
      ],
      "name": "MarketItemListed",
      "type": "event"
    },
    {
      "inputs": [
        {
          "internalType": "uint256",
          "name": "itemId",
          "type": "uint256"
        }
      ],
      "name": "buyMarketItem",
      "outputs": [],
      "stateMutability": "payable",
      "type": "function"
    },
    {
      "inputs": [
        {
          "internalType": "uint256",
          "name": "newPrice",
          "type": "uint256"
        }
      ],
      "name": "changeListingPrice",
      "outputs": [],
      "stateMutability": "nonpayable",
      "type": "function"
    },
    {
      "inputs": [
        {
          "internalType": "uint256",
          "name": "itemId",
          "type": "uint256"
        }
      ],
      "name": "getMarketItem",
      "outputs": [
        {
          "components": [
            {
              "internalType": "uint256",
              "name": "itemId",
              "type": "uint256"
            },
            {
              "internalType": "address",
              "name": "nftContractAddress",
              "type": "address"
            },
            {
              "internalType": "uint256",
              "name": "tokenId",
              "type": "uint256"
            },
            {
              "internalType": "address payable",
              "name": "seller",
              "type": "address"
            },
            {
              "internalType": "address",
              "name": "owner",
              "type": "address"
            },
            {
              "internalType": "uint256",
              "name": "price",
              "type": "uint256"
            },
            {
              "internalType": "bool",
              "name": "isSold",
              "type": "bool"
            },
            {
              "internalType": "bool",
              "name": "isPresent",
              "type": "bool"
            }
          ],
          "internalType": "struct Marketplace.MarketItem",
          "name": "items",
          "type": "tuple"
        }
      ],
      "stateMutability": "view",
      "type": "function"
    },
    {
      "inputs": [],
      "name": "itemCounter",
      "outputs": [
        {
          "internalType": "uint256",
          "name": "",
          "type": "uint256"
        }
      ],
      "stateMutability": "view",
      "type": "function"
    },
    {
      "inputs": [
        {
          "internalType": "address",
          "name": "nftContractAddress",
          "type": "address"
        },
        {
          "internalType": "uint256",
          "name": "tokenId",
          "type": "uint256"
        },
        {
          "internalType": "uint256",
          "name": "price",
          "type": "uint256"
        }
      ],
      "name": "listMarketItem",
      "outputs": [],
      "stateMutability": "payable",
      "type": "function"
    },
    {
      "inputs": [],
      "name": "listingPrice",
      "outputs": [
        {
          "internalType": "uint256",
          "name": "",
          "type": "uint256"
        }
      ],
      "stateMutability": "view",
      "type": "function"
    }
  ],
  "bytecode": "0x608060405234801561001057600080fd5b506000808190555033600160006101000a81548173ffffffffffffffffffffffffffffffffffffffff021916908373ffffffffffffffffffffffffffffffffffffffff160217905550662386f26fc10000600281905550610f66806100766000396000f3fe6080604052600436106100555760003560e01c8063213c4e1a1461005a578063351901c3146100765780636d6d00ed14610092578063ba0f1d9c146100bd578063c78f19f9146100e6578063c7be7a4914610111575b600080fd5b610074600480360381019061006f9190610959565b61014e565b005b610090600480360381019061008b91906109a8565b6104f3565b005b34801561009e57600080fd5b506100a761056c565b6040516100b49190610cb8565b60405180910390f35b3480156100c957600080fd5b506100e460048036038101906100df91906109a8565b610572565b005b3480156100f257600080fd5b506100fb61064f565b6040516101089190610cb8565b60405180910390f35b34801561011d57600080fd5b50610138600480360381019061013391906109a8565b610655565b6040516101459190610c9c565b60405180910390f35b6002543414610192576040517f08c379a000000000000000000000000000000000000000000000000000000000815260040161018990610c5c565b60405180910390fd5b600081116101d5576040517f08c379a00000000000000000000000000000000000000000000000000000000081526004016101cc90610c7c565b60405180910390fd5b60405180610100016040528060005481526020018473ffffffffffffffffffffffffffffffffffffffff1681526020018381526020013373ffffffffffffffffffffffffffffffffffffffff168152602001600073ffffffffffffffffffffffffffffffffffffffff1681526020018281526020016000151581526020016001151581525060036000805481526020019081526020016000206000820151816000015560208201518160010160006101000a81548173ffffffffffffffffffffffffffffffffffffffff021916908373ffffffffffffffffffffffffffffffffffffffff1602179055506040820151816002015560608201518160030160006101000a81548173ffffffffffffffffffffffffffffffffffffffff021916908373ffffffffffffffffffffffffffffffffffffffff16021790555060808201518160040160006101000a81548173ffffffffffffffffffffffffffffffffffffffff021916908373ffffffffffffffffffffffffffffffffffffffff16021790555060a0820151816005015560c08201518160060160006101000a81548160ff02191690831515021790555060e08201518160060160016101000a81548160ff0219169083151502179055509050508273ffffffffffffffffffffffffffffffffffffffff166323b872dd3330856040518463ffffffff1660e01b81526004016103e193929190610b92565b600060405180830381600087803b1580156103fb57600080fd5b505af115801561040f573d6000803e3d6000fd5b50505050600160009054906101000a900473ffffffffffffffffffffffffffffffffffffffff1673ffffffffffffffffffffffffffffffffffffffff166108fc6002549081150290604051600060405180830381858888f1935050505015801561047d573d6000803e3d6000fd5b50818373ffffffffffffffffffffffffffffffffffffffff166000547f3ace6c0795583be5a3d695c6d91a02885edf298c6854b9801b4791aa52c08227336000866040516104cd93929190610b92565b60405180910390a460016000808282546104e79190610cef565b92505081905550505050565b6105696040518060400160405280601081526020017f4e46542077697468206974656d49642000000000000000000000000000000000815250826040518060400160405280600b81526020017f697320736f6c6420746f20000000000000000000000000000000000000000000815250336107d9565b50565b60005481565b600081116105b5576040517f08c379a00000000000000000000000000000000000000000000000000000000081526004016105ac90610c1c565b60405180910390fd5b600160009054906101000a900473ffffffffffffffffffffffffffffffffffffffff1673ffffffffffffffffffffffffffffffffffffffff163373ffffffffffffffffffffffffffffffffffffffff1614610645576040517f08c379a000000000000000000000000000000000000000000000000000000000815260040161063c90610c3c565b60405180910390fd5b8060028190555050565b60025481565b61065d6108a4565b6003600083815260200190815260200160002060405180610100016040529081600082015481526020016001820160009054906101000a900473ffffffffffffffffffffffffffffffffffffffff1673ffffffffffffffffffffffffffffffffffffffff1673ffffffffffffffffffffffffffffffffffffffff168152602001600282015481526020016003820160009054906101000a900473ffffffffffffffffffffffffffffffffffffffff1673ffffffffffffffffffffffffffffffffffffffff1673ffffffffffffffffffffffffffffffffffffffff1681526020016004820160009054906101000a900473ffffffffffffffffffffffffffffffffffffffff1673ffffffffffffffffffffffffffffffffffffffff1673ffffffffffffffffffffffffffffffffffffffff168152602001600582015481526020016006820160009054906101000a900460ff161515151581526020016006820160019054906101000a900460ff1615151515815250509050919050565b610875848484846040516024016107f39493929190610bc9565b6040516020818303038152906040527f7c4632a4000000000000000000000000000000000000000000000000000000007bffffffffffffffffffffffffffffffffffffffffffffffffffffffff19166020820180517bffffffffffffffffffffffffffffffffffffffffffffffffffffffff838183161783525050505061087b565b50505050565b60008151905060006a636f6e736f6c652e6c6f679050602083016000808483855afa5050505050565b60405180610100016040528060008152602001600073ffffffffffffffffffffffffffffffffffffffff16815260200160008152602001600073ffffffffffffffffffffffffffffffffffffffff168152602001600073ffffffffffffffffffffffffffffffffffffffff168152602001600081526020016000151581526020016000151581525090565b60008135905061093e81610f02565b92915050565b60008135905061095381610f19565b92915050565b60008060006060848603121561096e57600080fd5b600061097c8682870161092f565b935050602061098d86828701610944565b925050604061099e86828701610944565b9150509250925092565b6000602082840312156109ba57600080fd5b60006109c884828501610944565b91505092915050565b6109da81610d57565b82525050565b6109e981610d45565b82525050565b6109f881610d45565b82525050565b610a0781610d69565b82525050565b6000610a1882610cd3565b610a228185610cde565b9350610a32818560208601610d9f565b610a3b81610e01565b840191505092915050565b6000610a53602483610cde565b9150610a5e82610e12565b604082019050919050565b6000610a76602b83610cde565b9150610a8182610e61565b604082019050919050565b6000610a99601a83610cde565b9150610aa482610eb0565b602082019050919050565b6000610abc601c83610cde565b9150610ac782610ed9565b602082019050919050565b61010082016000820151610ae96000850182610b74565b506020820151610afc60208501826109e0565b506040820151610b0f6040850182610b74565b506060820151610b2260608501826109d1565b506080820151610b3560808501826109e0565b5060a0820151610b4860a0850182610b74565b5060c0820151610b5b60c08501826109fe565b5060e0820151610b6e60e08501826109fe565b50505050565b610b7d81610d95565b82525050565b610b8c81610d95565b82525050565b6000606082019050610ba760008301866109ef565b610bb460208301856109ef565b610bc16040830184610b83565b949350505050565b60006080820190508181036000830152610be38187610a0d565b9050610bf26020830186610b83565b8181036040830152610c048185610a0d565b9050610c1360608301846109ef565b95945050505050565b60006020820190508181036000830152610c3581610a46565b9050919050565b60006020820190508181036000830152610c5581610a69565b9050919050565b60006020820190508181036000830152610c7581610a8c565b9050919050565b60006020820190508181036000830152610c9581610aaf565b9050919050565b600061010082019050610cb26000830184610ad2565b92915050565b6000602082019050610ccd6000830184610b83565b92915050565b600081519050919050565b600082825260208201905092915050565b6000610cfa82610d95565b9150610d0583610d95565b9250827fffffffffffffffffffffffffffffffffffffffffffffffffffffffffffffffff03821115610d3a57610d39610dd2565b5b828201905092915050565b6000610d5082610d75565b9050919050565b6000610d6282610d75565b9050919050565b60008115159050919050565b600073ffffffffffffffffffffffffffffffffffffffff82169050919050565b6000819050919050565b60005b83811015610dbd578082015181840152602081019050610da2565b83811115610dcc576000848401525b50505050565b7f4e487b7100000000000000000000000000000000000000000000000000000000600052601160045260246000fd5b6000601f19601f8301169050919050565b7f4c697374696e67205072696365206d757374206265206772656174657220746860008201527f616e203000000000000000000000000000000000000000000000000000000000602082015250565b7f4f6e6c7920746865206f776e65722063616e206368616e676520746865206c6960008201527f7374696e67207072696365000000000000000000000000000000000000000000602082015250565b7f4d7573742070617920746865206c697374696e67207072696365000000000000600082015250565b7f5072696365206d7573742062652067726561746572207468616e203000000000600082015250565b610f0b81610d45565b8114610f1657600080fd5b50565b610f2281610d95565b8114610f2d57600080fd5b5056fea2646970667358221220c6f44592a92cc85feedcdf19f82bbd519e3df8f6bf68d9c74b911ab191d4850664736f6c63430008040033",
  "linkReferences": {},
  "deployedLinkReferences": {}
}